{
  "contractName": "MyFlashLoan_V2",
  "abi": [
    {
      "inputs": [
        {
          "internalType": "address",
          "name": "_addressProvider",
          "type": "address"
        }
      ],
      "stateMutability": "nonpayable",
      "type": "constructor"
    },
    {
      "anonymous": false,
      "inputs": [
        {
          "indexed": false,
          "internalType": "uint256",
          "name": "amount",
          "type": "uint256"
        },
        {
          "indexed": false,
          "internalType": "uint256",
          "name": "fee",
          "type": "uint256"
        },
        {
          "indexed": false,
          "internalType": "address",
          "name": "asset",
          "type": "address"
        }
      ],
      "name": "flashloan_event",
      "type": "event"
    },
    {
      "inputs": [],
      "name": "ADDRESSES_PROVIDER",
      "outputs": [
        {
          "internalType": "contract ILendingPoolAddressesProvider",
          "name": "",
          "type": "address"
        }
      ],
      "stateMutability": "view",
      "type": "function",
      "constant": true
    },
    {
      "inputs": [],
      "name": "LENDING_POOL",
      "outputs": [
        {
          "internalType": "contract ILendingPool",
          "name": "",
          "type": "address"
        }
      ],
      "stateMutability": "view",
      "type": "function",
      "constant": true
    },
    {
      "inputs": [
        {
          "internalType": "address",
          "name": "asset",
          "type": "address"
        },
        {
          "internalType": "uint256",
          "name": "amount",
          "type": "uint256"
        }
      ],
      "name": "myFlashLoanCall",
      "outputs": [],
      "stateMutability": "nonpayable",
      "type": "function"
    },
    {
      "inputs": [
        {
          "internalType": "address[]",
          "name": "assets",
          "type": "address[]"
        },
        {
          "internalType": "uint256[]",
          "name": "amounts",
          "type": "uint256[]"
        },
        {
          "internalType": "uint256[]",
          "name": "premiums",
          "type": "uint256[]"
        },
        {
          "internalType": "address",
          "name": "initiator",
          "type": "address"
        },
        {
          "internalType": "bytes",
          "name": "params",
          "type": "bytes"
        }
      ],
      "name": "executeOperation",
      "outputs": [
        {
          "internalType": "bool",
          "name": "",
          "type": "bool"
        }
      ],
      "stateMutability": "nonpayable",
      "type": "function"
    },
    {
      "inputs": [
        {
          "internalType": "address",
          "name": "asset",
          "type": "address"
        }
      ],
      "name": "Token_Amount",
      "outputs": [
        {
          "internalType": "uint256",
          "name": "amount",
          "type": "uint256"
        }
      ],
      "stateMutability": "view",
      "type": "function",
      "constant": true
    }
  ],
  "bytecode": "0x60c060405234801561001057600080fd5b50604051610e8a380380610e8a8339818101604052602081101561003357600080fd5b8101908080519060200190929190505050808073ffffffffffffffffffffffffffffffffffffffff1660808173ffffffffffffffffffffffffffffffffffffffff1660601b815250508073ffffffffffffffffffffffffffffffffffffffff16630261bf8b6040518163ffffffff1660e01b815260040160206040518083038186803b1580156100c257600080fd5b505afa1580156100d6573d6000803e3d6000fd5b505050506040513d60208110156100ec57600080fd5b810190808051906020019092919050505073ffffffffffffffffffffffffffffffffffffffff1660a08173ffffffffffffffffffffffffffffffffffffffff1660601b81525050505060805160601c60a05160601c610d1d61016d60003980610397528061075e5280610ace5280610c3d52508061097c5250610d1d6000f3fe608060405234801561001057600080fd5b50600436106100575760003560e01c806302ec11b31461005c5780630542975c146100aa5780637577c539146100de578063920f5c8414610136578063b4dcfc77146102e4575b600080fd5b6100a86004803603604081101561007257600080fd5b81019080803573ffffffffffffffffffffffffffffffffffffffff16906020019092919080359060200190929190505050610318565b005b6100b261097a565b604051808273ffffffffffffffffffffffffffffffffffffffff16815260200191505060405180910390f35b610120600480360360208110156100f457600080fd5b81019080803573ffffffffffffffffffffffffffffffffffffffff16906020019092919050505061099e565b6040518082815260200191505060405180910390f35b6102cc600480360360a081101561014c57600080fd5b810190808035906020019064010000000081111561016957600080fd5b82018360208201111561017b57600080fd5b8035906020019184602083028401116401000000008311171561019d57600080fd5b9091929391929390803590602001906401000000008111156101be57600080fd5b8201836020820111156101d057600080fd5b803590602001918460208302840111640100000000831117156101f257600080fd5b90919293919293908035906020019064010000000081111561021357600080fd5b82018360208201111561022557600080fd5b8035906020019184602083028401116401000000008311171561024757600080fd5b9091929391929390803573ffffffffffffffffffffffffffffffffffffffff1690602001909291908035906020019064010000000081111561028857600080fd5b82018360208201111561029a57600080fd5b803590602001918460018302840111640100000000831117156102bc57600080fd5b9091929391929390505050610a49565b60405180821515815260200191505060405180910390f35b6102ec610c3b565b604051808273ffffffffffffffffffffffffffffffffffffffff16815260200191505060405180910390f35b600030905060008211610393576040517f08c379a000000000000000000000000000000000000000000000000000000000815260040180806020018281038252600b8152602001807f416d6f756e74206973203000000000000000000000000000000000000000000081525060200191505060405180910390fd5b60007f000000000000000000000000000000000000000000000000000000000000000073ffffffffffffffffffffffffffffffffffffffff1663386497fd856040518263ffffffff1660e01b8152600401808273ffffffffffffffffffffffffffffffffffffffff16815260200191505060206040518083038186803b15801561041c57600080fd5b505afa158015610430573d6000803e3d6000fd5b505050506040513d602081101561044657600080fd5b8101908080519060200190929190505050116104ca576040517f08c379a00000000000000000000000000000000000000000000000000000000081526004018080602001828103825260148152602001807f546f6b656e206e6f74207265676973746572656400000000000000000000000081525060200191505060405180910390fd5b818373ffffffffffffffffffffffffffffffffffffffff166370a08231836040518263ffffffff1660e01b8152600401808273ffffffffffffffffffffffffffffffffffffffff16815260200191505060206040518083038186803b15801561053257600080fd5b505afa158015610546573d6000803e3d6000fd5b505050506040513d602081101561055c57600080fd5b8101908080519060200190929190505050116105e0576040517f08c379a00000000000000000000000000000000000000000000000000000000081526004018080602001828103825260118152602001807f4e6f7420656e6f756768742066756e647300000000000000000000000000000081525060200191505060405180910390fd5b6060600167ffffffffffffffff811180156105fa57600080fd5b506040519080825280602002602001820160405280156106295781602001602082028036833780820191505090505b509050838160008151811061063a57fe5b602002602001019073ffffffffffffffffffffffffffffffffffffffff16908173ffffffffffffffffffffffffffffffffffffffff16815250506060600167ffffffffffffffff8111801561068e57600080fd5b506040519080825280602002602001820160405280156106bd5781602001602082028036833780820191505090505b50905083816000815181106106ce57fe5b6020026020010181815250506060600167ffffffffffffffff811180156106f457600080fd5b506040519080825280602002602001820160405280156107235781602001602082028036833780820191505090505b50905060008160008151811061073557fe5b6020026020010181815250506000309050606060405180602001604052806000815250905060007f000000000000000000000000000000000000000000000000000000000000000073ffffffffffffffffffffffffffffffffffffffff1663ab9c4b5d888888888888886040518863ffffffff1660e01b8152600401808873ffffffffffffffffffffffffffffffffffffffff1681526020018060200180602001806020018773ffffffffffffffffffffffffffffffffffffffff168152602001806020018661ffff16815260200185810385528b818151815260200191508051906020019060200280838360005b8381101561083f578082015181840152602081019050610824565b5050505090500185810384528a818151815260200191508051906020019060200280838360005b83811015610881578082015181840152602081019050610866565b50505050905001858103835289818151815260200191508051906020019060200280838360005b838110156108c35780820151818401526020810190506108a8565b50505050905001858103825287818151815260200191508051906020019080838360005b838110156109025780820151818401526020810190506108e7565b50505050905090810190601f16801561092f5780820380516001836020036101000a031916815260200191505b509b505050505050505050505050600060405180830381600087803b15801561095757600080fd5b505af115801561096b573d6000803e3d6000fd5b50505050505050505050505050565b7f000000000000000000000000000000000000000000000000000000000000000081565b60008173ffffffffffffffffffffffffffffffffffffffff166370a08231306040518263ffffffff1660e01b8152600401808273ffffffffffffffffffffffffffffffffffffffff16815260200191505060206040518083038186803b158015610a0757600080fd5b505afa158015610a1b573d6000803e3d6000fd5b505050506040513d6020811015610a3157600080fd5b81019080805190602001909291905050509050919050565b600080610a8587876000818110610a5c57fe5b905060200201358a8a6000818110610a7057fe5b90506020020135610c5f90919063ffffffff16565b90508a8a6000818110610a9457fe5b9050602002013573ffffffffffffffffffffffffffffffffffffffff1673ffffffffffffffffffffffffffffffffffffffff1663095ea7b37f0000000000000000000000000000000000000000000000000000000000000000836040518363ffffffff1660e01b8152600401808373ffffffffffffffffffffffffffffffffffffffff16815260200182815260200192505050602060405180830381600087803b158015610b4157600080fd5b505af1158015610b55573d6000803e3d6000fd5b505050506040513d6020811015610b6b57600080fd5b8101908080519060200190929190505050507fe45209bc6183caa3c76049697f7e1470fad877ee12b492748be4a02cc4dbf53989896000818110610bab57fe5b9050602002013588886000818110610bbf57fe5b905060200201358d8d6000818110610bd357fe5b9050602002013573ffffffffffffffffffffffffffffffffffffffff16604051808481526020018381526020018273ffffffffffffffffffffffffffffffffffffffff168152602001935050505060405180910390a160019150509998505050505050505050565b7f000000000000000000000000000000000000000000000000000000000000000081565b600080828401905083811015610cdd576040517f08c379a000000000000000000000000000000000000000000000000000000000815260040180806020018281038252601b8152602001807f536166654d6174683a206164646974696f6e206f766572666c6f77000000000081525060200191505060405180910390fd5b809150509291505056fea26469706673582212204d5002707f344b8750b95e0743a2fc79c3447d5054035f659327df284c6bc7c564736f6c634300060c0033",
  "immutableReferences": {
    "292": [
      {
        "length": 32,
        "start": 2428
      }
    ],
    "295": [
      {
        "length": 32,
        "start": 919
      },
      {
        "length": 32,
        "start": 1886
      },
      {
        "length": 32,
        "start": 2766
      },
      {
        "length": 32,
        "start": 3133
      }
    ]
  },
  "source": "// SPDX-License-Identifier: MIT\npragma solidity 0.6.12;\n\nimport \"../installed_contracts/ILendingPool.sol\";\nimport \"../installed_contracts/FlashLoanReceiverBase.sol\";\nimport \"../installed_contracts/ILendingPoolAddressesProvider.sol\";\n//import \"https://github.com/aave/protocol-v2/blob/master/contracts/protocol/libraries/types/DataTypes.sol\";\n\n\n\ncontract MyFlashLoan_V2 is FlashLoanReceiverBase {\n    \n    constructor(address _addressProvider) FlashLoanReceiverBase(ILendingPoolAddressesProvider(_addressProvider)) public{}\n    \n    event flashloan_event(uint amount, uint fee, address asset);\n    \n    /**\n    *  @dev Do a flash loan\n       @param asset Address of the token we want to make a flash loan on. The address must be registered in the LendingPool reserve.\n       @param amount Amount of token to lend. It must be non zero and less than MyFlashLoan_V2's contract balance in this token.\n    */\n    function myFlashLoanCall(address asset, uint amount) public {\n        address receiverAddress = address(this);\n        \n        \n        require(amount>0, \"Amount is 0\");\n        require(LENDING_POOL.getReserveNormalizedVariableDebt(asset)>0, \"Token not registered\");\n        require(IERC20(asset).balanceOf(receiverAddress) > amount, \"Not enought funds\");\n        \n        \n        address[] memory assets = new address[](1);\n        assets[0] = address(asset);\n\n        uint256[] memory amounts = new uint256[](1);\n        amounts[0] = amount;\n\n        // 0 = no debt, 1 = stable, 2 = variable\n        uint256[] memory modes = new uint256[](1);\n        modes[0] = 0;\n\n        address onBehalfOf = address(this);\n        bytes memory params = \"\";\n        uint16 referralCode = 0;\n\n        LENDING_POOL.flashLoan(\n            receiverAddress,\n            assets,\n            amounts,\n            modes,\n            onBehalfOf,\n            params,\n            referralCode\n        );\n    }\n    \n    \n     /**\n        This function is called after your contract has received the flash loaned amount\n     */\n    function executeOperation(\n        address[] calldata assets,\n        uint256[] calldata amounts,\n        uint256[] calldata premiums,\n        address initiator,\n        bytes calldata params\n    )\n        external\n        override\n        returns (bool)\n    {\n\n        uint amountOwing = amounts[0].add(premiums[0]);\n        IERC20(assets[0]).approve(address(LENDING_POOL), amountOwing);\n        \n        emit flashloan_event(amounts[0], premiums[0], assets[0]);\n        \n        return true;\n    }\n    \n    /**\n    *@notice Give the contract's balance of an asset.\n    *@param asset Address of the asset\n    *@return amount Balance \n     */\n    function Token_Amount(address asset) external view returns(uint amount){\n        return IERC20(asset).balanceOf(address(this));\n    }\n    \n    \n}\n",
  "sourcePath": "/home/andrei/Eidoo/Flashloan_Eidoo/contracts/MyFlashLoan_V2.sol",
  "compiler": {
    "name": "solc",
    "version": "0.6.12+commit.27d51765.Emscripten.clang"
  },
  "schemaVersion": "3.3.1",
  "updatedAt": "2021-07-07T16:20:28.896Z",
  "networkType": "ethereum",
  "devdoc": {
    "kind": "dev",
    "methods": {
      "Token_Amount(address)": {
        "params": {
          "asset": "Address of the asset"
        },
        "returns": {
          "amount": "Balance "
        }
      },
      "myFlashLoanCall(address,uint256)": {
        "details": "Do a flash loan",
        "params": {
          "amount": "Amount of token to lend. It must be non zero and less than MyFlashLoan_V2's contract balance in this token.",
          "asset": "Address of the token we want to make a flash loan on. The address must be registered in the LendingPool reserve."
        }
      }
    },
    "version": 1
  },
  "userdoc": {
    "kind": "user",
    "methods": {
      "Token_Amount(address)": {
        "notice": "Give the contract's balance of an asset."
      },
      "executeOperation(address[],uint256[],uint256[],address,bytes)": {
        "notice": "This function is called after your contract has received the flash loaned amount"
      }
    },
    "version": 1
  }
}